:1000000065C000007AC0000078C0000076C0000023
:1000100074C0000072C0000070C000006EC000001C
:100020006CC000006AC0000068C0000066C000002C
:1000300064C0000062C0000060C000005EC000003C
:100040005CC000005AC0000058C0000056C000004C
:1000500054C0000052C0000050C000004EC000005C
:100060004CC000004AC0000048C0000046C000006C
:1000700044C0000042C0000040C000003EC000007C
:100080003CC000003AC0000038C0000036C000008C
:1000900034C0000032C0000030C000002EC000009C
:1000A0002CC000002AC0000028C0000026C00000AC
:1000B00024C0000022C0000020C000001EC00000BC
:1000C0001CC000001AC0000018C0000011241FBE90
:1000D000CFEFD1E2DEBFCDBF00E00CBF12E0A0E069
:1000E000B2E0EEE8F1E000E00BBF02C007900D9235
:1000F000A231B107D9F73ED048C082CF92E095B97E
:10010000E7EAF1E63197F1F700C0000082B915B8CF
:1001100087EA91E60197F1F700C00000089593E0A7
:1001200095B982B983ED90E30197F1F700C0000023
:1001300081E085B908950F931F93CF93DF938C01CE
:1001400080E390E0DBDF8EE090E0D8DF80E890E0B5
:10015000D5DFC0E0D0E003C090E0E1DF2196F801F8
:10016000EC0FFD1F80818111F7CFDF91CF911F919F
:100170000F9108958FEF81B984B98AB98DB980E064
:0E01800092E0D9DF80E090E00895F894FFCF80
:10018E00444F5347414C492049534B414E444552ED
:02019E0000005F
:00000001FF
