S01200004E657750726F6A6563742E7372656311
S113000065C000007AC0000078C0000076C000001F
S113001074C0000072C0000070C000006EC0000018
S11300206CC000006AC0000068C0000066C0000028
S113003064C0000062C0000060C000005EC0000038
S11300405CC000005AC0000058C0000056C0000048
S113005054C0000052C0000050C000004EC0000058
S11300604CC000004AC0000048C0000046C0000068
S113007044C0000042C0000040C000003EC0000078
S11300803CC000003AC0000038C0000036C0000088
S113009034C0000032C0000030C000002EC0000098
S11300A02CC000002AC0000028C0000026C00000A8
S11300B024C0000022C0000020C000001EC00000B8
S11300C01CC000001AC0000018C0000011241FBE8C
S11300D0CFEFD1E2DEBFCDBF00E00CBF12E0A0E065
S11300E0B2E0E8E9F2E000E00BBF02C007900D9235
S11300F0AA31B107D9F7B8D0CDC082CF92E095B973
S1130100E7EAF1E63197F1F700C0000082B915B8CB
S113011087EA91E60197F1F700C00000089593E0A3
S113012095B982B983ED90E30197F1F700C000001F
S113013081E085B908950F931F93CF93DF938C01CA
S113014088E390E0DBDF8EE090E0D8DF80E890E0A9
S1130150D5DFC0E0D0E003C090E0E1DF2196F801F4
S1130160EC0FFD1F80818111F7CFDF91CF911F919B
S11301700F9108950F931F93CF93DF938C0188E31E
S113018090E0BCDF8EE090E0B9DF80EC90E0B6DF79
S1130190C0E0D0E003C090E0C2DF2196F801EC0F8C
S11301A0FD1F80818111F7CFDF91CF911F910F91B6
S11301B0089592E091BBE7EAF1E63197F1F700C0C8
S11301C000008EB911BA87EA91E60197F1F700C0F1
S11301D00000089593E091BB8EB983ED90E30197FD
S11301E0F1F700C0000081E081BB08950F931F93D5
S11301F0CF93DF938C0188E390E0DBDF8EE090E027
S1130200D8DF80E890E0D5DFC0E0D0E003C090E024
S1130210E1DF2196F801EC0FFD1F80818111F7CFFA
S1130220DF91CF911F910F9108950F931F93CF9357
S1130230DF938C0188E390E0BCDF8EE090E0B9DFCF
S113024080EC90E0B6DFC0E0D0E003C090E0C2DF15
S11302502196F801EC0FFD1F80818111F7CFDF910A
S1130260CF911F910F910895CF93CFEFC1B9C4B926
S113027080E092E060DF89E092E07CDFCDB9C0BB32
S113028080E092E0B3DF81E192E0CFDF80E090E0B4
S10B0290CF910895F894FFCF0B
S113029849736B616E64657200446F7367616C695E
S10D02A80049532D313830316B004A
S9030000FC
